:100000000C945D000C947E030C9457030C948500B3
:100010000C9485000C9485000C9485000C9485004C
:100020000C9485000C9485000C9485000C9485003C
:100030000C9485000C9485000C9485000C9485002C
:100040000C940D030C9485000C94CB030C94A50325
:100050000C9485000C9485000C9485000C9485000C
:100060000C9485000C9485000000000024002700FB
:100070002A0000000000250028002B0004040404CE
:100080000404040402020202020203030303030342
:10009000010204081020408001020408102001021F
:1000A00004081020000000080002010000030407FB
:1000B0000000000000000000A10511241FBECFEFCA
:1000C000D8E0DEBFCDBF11E0A0E0B1E0E0EFFBE0A3
:1000D00002C005900D92AA3FB107D9F722E0AAEF1E
:1000E000B1E001C01D92AB3AB207E1F710E0CDE5F7
:1000F000D0E004C02197FE010E94F005CC35D10765
:10010000C9F70E94FD030C94F6050C94000090E0E2
:10011000FC01EC55FF4F2491FC01E057FF4F349157
:10012000FC01E458FF4FE491EE23C9F0222339F09B
:10013000233001F1A8F4213019F1223029F1F0E047
:10014000EE0FFF1FEE58FF4FA591B4918FB7F894B3
:10015000EC91611126C030953E233C938FBF0895EA
:100160002730A9F02830C9F0243049F78091800069
:100170008F7D03C0809180008F7780938000DFCFD8
:1001800084B58F7784BDDBCF84B58F7DFBCF809125
:10019000B0008F778093B000D2CF8091B0008F7D78
:1001A000F9CF3E2BDACFCF93DF9390E0FC01E057FD
:1001B000FF4F249184589F4FFC0184918823D1F0F4
:1001C00090E0880F991FFC01E859FF4FA591B49169
:1001D000FC01EE58FF4FC591D491623071F49FB786
:1001E000F8943C91822F809583238C93E8812E2B69
:1001F00028839FBFDF91CF9108958FB7F894EC913A
:100200002E2B2C938FBFF6CF1F93CF93DF93182FF6
:10021000EB0161E00E94D300209739F460E0812F68
:10022000DF91CF911F910C948700CF3FD10511F43E
:1002300061E0F5CFE12FF0E0EC55FF4FE491E330C2
:1002400031F140F4E130B1F0E230E1F0C038D105F5
:100250007CF7E4CFE73029F1E83059F1E430B1F729
:1002600080918000806280938000D0938B00C09347
:100270008A0004C084B5806884BDC7BDDF91CF917A
:100280001F91089584B5806284BDC8BDF7CF809169
:100290008000806880938000D0938900C09388009C
:1002A000EDCF8091B00080688093B000C093B30020
:1002B000E5CF8091B00080628093B000C093B4001D
:1002C000DDCF3FB7F89480910A0290910B02A09184
:1002D0000C02B0910D0226B5A89B05C02F3F19F066
:1002E0000196A11DB11D3FBFBA2FA92F982F8827B6
:1002F000BC01CD01620F711D811D911D42E0660F91
:10030000771F881F991F4A95D1F708950F931F9360
:100310002FB7F8948091060290910702A0910802ED
:10032000B09109022FBF4091FA015091FB016091F9
:10033000FC017091FD018C019D01041B150B260B26
:10034000370BB901A801473951056105710518F14D
:100350002091020230910302232B41F48093FE018D
:100360009093FF01A0930002B0930102209102023A
:10037000309103022F5F3F4F30930302209302021C
:1003800021E0209304028093FA019093FB01A09353
:10039000FC01B093FD011F910F9108950895AF9254
:1003A000BF92CF92DF92EF92FF920F931F93CF9362
:1003B000DF936C017B018B01040F151FEB015E01C4
:1003C000AE18BF08C017D10759F06991D601ED9159
:1003D000FC910190F081E02DC6010995892B79F7F8
:1003E000C501DF91CF911F910F91FF90EF90DF90AA
:1003F000CF90BF90AF900895FC01538D448D252F71
:1004000030E0842F90E0821B930B541710F0CF96AE
:10041000089501970895FC01918D828D981761F0E0
:10042000A28DAE0FBF2FB11D5D968C91928D9F5FF7
:100430009F73928F90E008958FEF9FEF0895FC01D6
:10044000918D828D981731F0828DE80FF11D858D89
:1004500090E008958FEF9FEF0895FC01918D228D1C
:10046000892F90E0805C9F4F821B91098F739927A1
:1004700008958EE092E00E942D0221E0892B09F47C
:1004800020E0822F089580E090E0892B29F00E94DF
:10049000390281110C9400000895FC01A48DA80F6D
:1004A000B92FB11DA35ABF4F2C91848D90E00196B6
:1004B0008F739927848FA689B7892C93A089B189D6
:1004C0008C91837080648C93938D848D981306C077
:1004D0000288F389E02D80818F7D80830895EF92DB
:1004E000FF920F931F93CF93DF93EC0181E0888FEE
:1004F0009B8D8C8D98131AC0E889F989808185FFBE
:1005000015C09FB7F894EE89FF896083E889F9895F
:1005100080818370806480839FBF81E090E0DF9161
:10052000CF911F910F91FF90EF900895F62E0B8DB4
:1005300010E00F5F1F4F0F731127E02E8C8D8E116F
:100540000CC00FB607FCFACFE889F989808185FFD6
:10055000F5CFCE010E944D02F1CFEB8DEC0FFD2FB8
:10056000F11DE35AFF4FF0829FB7F8940B8FEA8991
:10057000FB8980818062CFCFCF93DF93EC01888DA0
:100580008823B9F0AA89BB89E889F9898C9185FD0E
:1005900003C0808186FD0DC00FB607FCF7CF8C919C
:1005A00085FFF2CF808185FFEDCFCE010E944D0205
:1005B000E9CFDF91CF9108950F931F93CF93DF93EE
:1005C0008B01EA01BC018BE00E940401B8018AE0C2
:1005D0000E940401BE0189E0DF91CF911F910F912C
:1005E0000C940401FC0101900020E9F73197AF0160
:1005F000481B590BBC018EE092E00C94CF01CF93C5
:10060000DF930E94F202EC0186E191E00E94F20287
:100610008C0F9D1FDF91CF9108951F920F920FB6FF
:100620000F9211242F933F938F939F93AF93BF9378
:100630008091060290910702A0910802B0910902F0
:100640003091050223E0230F2D3758F50196A11DA7
:10065000B11D209305028093060290930702A09398
:100660000802B093090280910A0290910B02A091B6
:100670000C02B0910D020196A11DB11D80930A02DA
:1006800090930B02A0930C02B0930D02BF91AF9117
:100690009F918F913F912F910F900FBE0F901F90C0
:1006A000189526E8230F0296A11DB11DD2CF1F92E7
:1006B0000F920FB60F9211242F933F934F935F9396
:1006C0006F937F938F939F93AF93BF93EF93FF931A
:1006D000E0910201F09103010995FF91EF91BF9123
:1006E000AF919F918F917F916F915F914F913F91CA
:1006F0002F910F900FBE0F901F9018951F920F9281
:100700000FB60F9211242F933F934F935F936F93E4
:100710007F938F939F93AF93BF93EF93FF93E0915A
:100720000001F09101010995FF91EF91BF91AF9107
:100730009F918F917F916F915F914F913F912F91F9
:100740000F900FBE0F901F9018951F920F920FB62B
:100750000F9211242F933F934F935F936F937F9347
:100760008F939F93AF93BF93EF93FF938EE092E0AD
:100770000E944D02FF91EF91BF91AF919F918F9198
:100780007F916F915F914F913F912F910F900FBE8D
:100790000F901F9018951F920F920FB60F92112471
:1007A0002F938F939F93EF93FF93E0911E02F0910D
:1007B0001F028081E0912402F091250282FD1BC07E
:1007C0009081809127028F5F8F732091280282177A
:1007D00041F0E0912702F0E0E25FFD4F958F8093BA
:1007E0002702FF91EF919F918F912F910F900FBE54
:1007F0000F901F9018958081F4CFCF93DF93CDB7E2
:10080000DEB7A1970FB6F894DEBF0FBECDBF7894C8
:1008100084B5826084BD84B5816084BD85B5826005
:1008200085BD85B5816085BD80916E0081608093B6
:100830006E0010928100809181008260809381001F
:10084000809181008160809381008091800081602F
:10085000809380008091B10084608093B10080918A
:10086000B00081608093B00080917A0084608093B2
:100870007A0080917A00826080937A0080917A0079
:10088000816080937A0080917A00806880937A00FA
:100890001092C10062E082E00E94D30061E08DE02E
:1008A0000E94D30061E08BE00E94D30061E08AE007
:1008B0000E94D30061E089E00E94D300E0911E0213
:1008C000F0911F0282E08083E0911A02F0911B02F6
:1008D0001082E0911C02F0911D028FEC8083109237
:1008E0002602E0912202F091230286E08083E091CB
:1008F0002002F0912102808180618083E0912002BA
:10090000F0912102808188608083E0912002F09143
:100910002102808180688083E0912002F091210291
:1009200080818F7D808388E991E00E94FF0289E1C8
:1009300091E00E94FF0250E040E06FEF70E090E035
:1009400080E00E94DC0286E891E0909301018093B0
:100950000001809169008C7F826080936900E89A31
:100960009AE0892E912CA12CB12C00E010E080910E
:100970000402882309F441C084E491E00E94F20259
:10098000C0900202D09003020D2C000CEE08FF086C
:10099000F7FEB4C06DE28EE092E00E946F02222763
:1009A0003327A9012C193D094E095F0919A2CE016F
:1009B00081967C01CA01B901A50194010E94CE056E
:1009C000605DF70162937F012115310541055105F5
:1009D00089F7E114F10419F0C7010E94F20286E1DF
:1009E00091E00E94F2024FEF50E070E060E090E092
:1009F00080E00E94DC021092040280910202909139
:100A00000302181619060CF06DC02FB7F8948091E8
:100A1000060290910702A0910802B09109022FBF2F
:100A20004091FE015091FF0160910002709101021E
:100A3000841B950BA60BB70B813D9740A105B10513
:100A400008F450C0809102029091030205970CF4C3
:100A50006BC081E691E00E94FF0250E040E070E050
:100A600060E08FEF90E00E94DC0261E08DE00E9488
:100A700087000E9461016B017C0188EB482E8BE0AE
:100A8000582E612C712C0E9461016C197D098E0910
:100A90009F09683E734081059105A8F321E0421A41
:100AA00051086108710888EEC80E83E0D81EE11C69
:100AB000F11C411451046104710429F760E08DE0D8
:100AC0000E948700109203021092020287E991E0CF
:100AD0000E94FF0250E040E06FEF70E090E080E0A5
:100AE0000E94DC020115110509F441CF0E94390270
:100AF000882309F43CCF0E94000039CFA70196015A
:100B000019A2CE0181967C01CA01B901A501940107
:100B10000E94CE05605DF70162937F0121153105CA
:100B20004105510589F755CF8EEA91E00E94FF02F9
:100B300085ED91E00E94FF021092030210920202E2
:100B4000C9CFEEE0F2E01382128288EE93E0A0E0DB
:100B5000B0E084839583A683B78388E091E0918396
:100B6000808385EC90E09587848784EC90E097877C
:100B7000868780EC90E0918B808B81EC90E0938B6A
:100B8000828B82EC90E0958B848B86EC90E0978B47
:100B9000868B118E128E138E148E0895A1E21A2E5A
:100BA000AA1BBB1BFD010DC0AA1FBB1FEE1FFF1F11
:100BB000A217B307E407F50720F0A21BB30BE40B61
:100BC000F50B661F771F881F991F1A9469F76095A8
:100BD0007095809590959B01AC01BD01CF01089562
:100BE000EE0FFF1F0590F491E02D0994F894FFCFCC
:100BF000CE01CE01000000006F02CF01FC01BC025B
:100C00002D020B021F020D0A0043505520656E7421
:100C10006572696E67206C6F772D706F77657220D3
:100C20006D6F6E69746F72696E672073746174653D
:100C30002E2E2E004D6F74696F6E205370696B6598
:100C4000212044616E6765722053636F72653A209C
:100C5000000AF09F9AA820534F5320545249474707
:100C6000455245443A205472616E736D69747469DB
:100C70006E67204C6F636174696F6E2044617461AC
:100C80002120F09F9AA8000A477561726469616E1D
:100C90002052696E673A2041726D65642E00506182
:100CA000747465726E2064656772616465642E2079
:100CB00046616C736520616C61726D20617665724E
:100CC0007465642E004350552072657475726E69A8
:100CD0006E6720746F206C6F772D706F7765722050
:0A0CE00073746174652E2E2E00005F
:00000001FF
